:040000004DEF00F0D0
:060008000D82B8ED00F0CE
:100018000D80D8CF0AF0E8CF0BF0E0CF0CF0F0A0BD
:1000280018EF00F01AEF00F021EF00F0010E0524A0
:10003800056E000E0620066EF090F0A226EF00F086
:1000480028EF00F02FEF00F0FF0E0524056EFF0EDD
:100058000620066EF092F2A434EF00F036EF00F0BE
:1000680045EF00F0ECEC00F0E806D8A43EEF00F015
:1000780040EF00F042EF00F04FEC00F0F294000E79
:10008800D66E0CC0E0FF0BC0E8FF0AC0D8FF0D9089
:1000980010003FEF01F006AE5AEF00F00528FF0E02
:1000A8000658D8B05AEF00F05CEF00F08AEF00F085
:1000B800056806688AEF00F089928984899689889C
:1000C800B7EF00F08992899489968998B7EF00F084
:1000D8008982899489968998B7EF00F089928984F2
:1000E80089968998B7EF00F08992899489868998CA
:1000F800B7EF00F08992899489968988B7EF00F064
:100108008982898489868988B7EF00F005C008F05C
:1001180006C009F00950000AD8B499EF00F0FF0AA8
:10012800D8B4B0EF00F084EF00F00850000AD8B45B
:1001380066EF00F0010AD8B46CEF00F0030AD8B4F7
:1001480072EF00F0010AD8B478EF00F0070AD8B4CB
:100158007EEF00F084EF00F00850FF0AD8B460EF9B
:1001680000F084EF00F012000600F2A2BEEF00F0EB
:10017800C0EF00F0EAEF00F089BAC5EF00F0C8EF71
:1001880000F0010EC9EF00F0000EFF0A076E073AF3
:10019800074689500718DF0B0718896EF292D0BE00
:1001A800D8EF00F0DBEF00F0010EDCEF00F0000EFE
:1001B800FF0A076E07320732D05007187F0B07185F
:1001C800D06E000ED66EF090F092F2940D9211005F
:1001D800010E0124016E000E0220026E0F0E01189E
:1001E8000210D8A4FAEF00F0FCEF00F006EF01F0DF
:1001F800000E026E000E016E010E0324036E000E47
:100208000420046E050E03180410D8A40EEF01F0A4
:1002180010EF01F017EF01F0000E046E000E036EF0
:10022800010E18EF01F0000E12000F0EC16E000E45
:10023800926E8992899489968998899AD08EF28E3D
:10024800F28CF292F18CF288F090F18AF086F09CB0
:10025800F092F188F088F09ED58CD59AD596D58401
:10026800D582D580F194F28AD58E000ED66E3BEFFA
:1002780001F04DEF00F0066A056A046A036A026A33
:10028800016A0D900D92000EF86E000119EF01F051
:020000040020DA
:08000000FFFFFFFFFFFFFFFF00
:020000040030CA
:0E00000000051F14FF8385FF0FC00FE00F40A7
:00000001FF
